:020000041000EA
:1000000000B5324B212058609868022188439860DF
:10001000D860186158612E4B002199600221596106
:100020000121F02299502B49196001219960352056
:1000300000F044F80222904214D00621196600F024
:1000400034F8196E01211966002018661A6600F04E
:100050002CF8196E196E196E052000F02FF8012189
:100060000842F9D1002199601B49196000215960AB
:100070001A491B48016001219960EB211966A021F2
:10008000196600F012F800219960164914480160C1
:100090000121996001BC002800D000471248134993
:1000A000086003C880F30888084703B5996A0420EC
:1000B0000142FBD001200142F8D103BD02B5186610
:1000C0001866FFF7F2FF186E186E02BD00000240BE
:1000D000000000180000070000035F00212200005C
:1000E000F4000018222000A00001001008ED00E03C
:1000F00000000000000000000000000074B24E7A12
:1001000000200420F7010010C3010010C5010010F9
:10011000C1010010C1010010C1010010C101001097
:10012000C1010010C1010010C1010010C701001081
:10013000C1010010C1010010C9010010CB01001065
:10014000CD010010CD010010CD010010CD01001037
:10015000CD010010CD010010CD010010CD01001027
:10016000CD010010CD010010CD010010CD01001017
:10017000CD010010CD010010CD010010CD01001007
:10018000CD010010CD010010CD010010CD010010F7
:10019000CD010010CD010010CD010010CD010010E7
:1001A000CD010010CD010010CD010010CD010010D7
:1001B000CD010010CD010010CD010010CD010010C7
:1001C00000BE00BE00BE00BE00BE00BEEFF3058054
:1001D000103800BEF2EB8871D8020010F402001053
:1001E0003402001090A31AE700202249086006C8D4
:1001F00081F30888104720480068002835D10DA4F5
:100200000ECC002902D000F012F8F9E71B491C4A75
:10021000002000E001C19142FCD11A4988471A49E7
:1002200088471A49884700BEFDE701C901C29A42C2
:10023000FBD37047F4020010C0000020E8580120F2
:100240001C5B0110F0580120C49C0120F09E01109D
:100250000000042000000420F09E01100010042083
:1002600000100420000000007047094800F014F856
:100270000047000008ED00E0000000D0C89C01200D
:10028000FCE1012005540020B9010020C1530020E9
:10029000575600000000000001B40248844601BC2B
:1002A000604700BF7D66002006005250ABB360532C
:1002B0001873012006005250861C03022873012087
:1002C000060052505422A29D347301200500525062
:0802D000DE65F468F09E0110E8
:1002D800CC020010C0020010B402001040730120CC
:0C02E800A80200104C7301205873012084
:1002F400F8B5C04610B5064C2378002B07D1054B42
:10030400002B02D0044800E000BF0123237010BD7D
:10031400F0BC012000000000E8580120044B10B597
:10032400002B03D00349044800E000BF10BDC046C1
:1003340000000000F4BC0120E858012010B500F0D2
:100344000DF9041E09DD074800F0F4FB21000648FE
:1003540000F0F0FB02F054FF10BD0100034800F070
:10036400FDFBF0E7385D0120505D0120185D0120A0
:1003740070B582B004000D00160003F0AFF8002839
:1003840001D002B070BD154B00930122012105304C
:1003940004F04CFF00962B0022000121104805F0C8
:1003A4004FF831006943200006F0D4FA04000D4BE5
:1003B400009300220221042004F038FF009423005B
:1003C40000220121052004F031FF009423000022C3
:1003D4000021062004F02AFFD3E7C046006CDC02AB
:1003E40000800240001BB70000B585B0322004F045
:1003F4009DF90F2005F0B4F8322004F097F903AB0F
:1004040002AA01A9114802F0B9FF002803D10F493B
:100414000F4805F08BF9039A02990198FFF7A8FF9A
:10042400322004F083F900F0CFFA0EF057FA02E01C
:10043400D0231B069B6DD0231B061B6DDB07F7D453
:1004440004480EF0BFFA00F055FBFCE7801A0600E2
:10045400685D01200D01002070B506000D00002428
:100464001AE0D0221206802109019161C046D022EF
:1004740012068021C9005161C0469161013B002BE5
:1004840009DB02001A41D207EBD5D02212068021E3
:1004940009015161EAE70134AC4202D2305D07231D
:1004A400EDE770BD70B505000E00002413E0C046F2
:1004B400D0231B068020C0005861C046986158684C
:1004C400000B0123034093401943C9B2013A002AA7
:1004D400EDDA29550134B44202D207220021F6E7AD
:1004E40070BD10B582B00C1E6B46D87104D00123C8
:1004F4008B40D0221206936101216B46D81DFFF771
:10050400ABFF002C04D00123A340D0221206536178
:1005140002B010BD10B5040001006620FFF7E1FF32
:1005240021009920FFF7DDFF0A2004F0FFF810BD39
:1005340070B50D0001248440D0263606B461002134
:100544009F20FFF7CEFF03212800FFF785FF062138
:100554002800FFF7A7FF746170BD000000B583B0E9
:10056400152002F0AFFF162002F0ACFF0E2002F0BF
:10057400A9FF0B2002F0A6FF0C2002F0A3FF0A2023
:1005840002F0A0FFD0231B06802292035A625A6114
:100594008022D2035A625A618022D2015A625A617D
:1005A400802212015A62802252019A628022D20071
:1005B4005A620121152002F065FF0121162002F084
:1005C40061FF01210E2002F05DFF01210B2002F0EA
:1005D40059FF01210C2002F055FF01210A2002F0ED
:1005E40051FF0A2004F0A2F81520FFF793FF16200C
:1005F400FFF790FF0E20FFF78DFF69461520FFF7E8
:1006040097FF6B465B785D2B1AD169461620FFF77E
:100614008FFF6B465B785D2B15D169460E20FFF783
:1006240087FF6B465B785D2B10D1002200230949BC
:100634000A604B6008490A604B60012003B000BDAA
:1006440001204042FAE702204042F7E703204042FB
:10065400F4E7C046E8BC0120E0BC012010B50C0062
:100664001900002A03D0220000F062F810BD220015
:1006740000F00AF9FAE70000F0B5C64600B50F002D
:10068400151E984613D0264B02221A700421254BBE
:10069400C41880231B049C420ED3FF231B06C418DA
:1006A40080231B049C422AD30400152305E01C4B21
:1006B4000B221A700521EAE71623220C184842700F
:1006C400220A8270C47001249C40D0231B069C61C2
:1006D400FFF7C2FE002D14D01349012200230D6838
:1006E4004E68521973410A604B6039004046FFF767
:1006F400B3FED0231B065C6180BCB846F0BD0E235C
:10070400DBE70A49012200230D684E685219734140
:100714000A604B6039004046FFF7C4FEE9E7C04673
:1007240070CE0120000080FFE8BC0120E0BC012065
:10073400F0B5DE4657464E464546E0B583B0070061
:100744000191924683091F261E404B490122002332
:100754000C684D6812196B410A604B60002005005B
:10076400644617E02800A4464449012200230C688B
:100774004D6812196B410A604B6080465BE03F2371
:100784009843230001224021FFF776FF27E0012D43
:100794003AD00135012D4DDC74006419A200384BA8
:1007A400D1188946A40137496418D358DA07EED51D
:1007B4001A007A40D20AD5D0012DEAD19B08012231
:1007C40053401A40904674004444A2002C4BD11864
:1007D4008946A4012B496418D0588307CFD43F23FA
:1007E4003A009A4393462300002240215846FFF7DB
:1007F40043FF2349730043449B005A465A50012245
:10080400584602435A50C4E73F233A009A4390465D
:100814002300002240214046FFF72EFF18497300B1
:100824005B199B0042465A500122404602435A50EB
:10083400A846AEE7A446F600114B9E19042372683D
:100844009A431300726042469200134373603F2040
:10085400384060445246019906F0CEFF02234A46CE
:10086400126813434A46136003B0F0BCBB46B24659
:10087400A946A046F0BDC046C89C0120D8BC0120B2
:1008840074E0012070BE0120F0B5DE4657464E46A6
:100894004546E0B583B080468A46934683091F27C0
:1008A4001F4000974449012200230C684D68121927
:1008B4006B410A604B60002532E04049012200236D
:1008C4000E684F6892197B410A604B60A946009BF1
:1008D400DF003B4BDF1904237A689A4313007A60E4
:1008E4004A46920013437B603F2143461940019BD3
:1008F4009C4661445A46504606F07EFF03B0F0BC65
:10090400BB46B246A946A046F0BD3F239843019B8F
:1009140001224021FFF7B0FE27E0012D38D0013538
:10092400012DD4DC009B5C006419A60125497318D1
:100934000193A400224BE358DA07EED542465A400D
:10094400D20ABAD0012DEAD19B08012253401A40A1
:100954009146009B5B004B449E011A497218019218
:100964009B00174A98588307CFD43F2344469C439F
:10097400019B002240212000FFF77EFE104A009BCD
:100984005B004B449B009C5001210C439C50C6E7E8
:100994003F2344469C43019B002240212000FFF753
:1009A4006BFE074A009B5B005B199B009C50012176
:1009B4000C439C50A946B2E7C89C0120D8BC012036
:1009C40074E0012070BE012010B5E12149020E48F7
:1009D40004F0ECFB0221002002F022FD02210120A0
:1009E40002F01EFD02F0ECFD03000F220121074876
:1009F40004F032FB02F0E4FD03000F22012104485D
:100A040004F02AFB10BDC046004003405CDF012017
:100A140024D3012010B582B01CE06B469A1D0D232F
:100A24001370002108E0314B9B699B06FBD41078BE
:100A34002E4B1860013101320029F4D02CE02B4BED
:100A44009B699B06FBD41078284B18600131013256
:100A54000029F4D0264B1A68EFF3108172B613689C
:100A6400002BFCD0BFF35F8F214A138952899B1A54
:100A74001AD41F4A1268BFF35F8F0020106081F3FD
:100A84001088002B25D06B465C1D2100184804F00B
:100A9400FAFA23780A2BC0D06B4605331B786A46D2
:100AA400063213700021D3E7114AD28901329B1810
:100AB400DFE70E4B9B69DB06FBD40C4B1B680B700A
:100AC40001320131002AF4D06B46D979032002F0B7
:100AD4001DF9064B9B6910210A001A40194202D1E4
:100AE4006B46D91DEEE702B010BDC046004003407E
:100AF4005CDF012010B5FFF78DFF10BD00B583B09A
:100B04006B46D91D0870024804F0B8FA03B000BD62
:100B14005CDF012070B506000EF07AFD05000024AC
:100B240003E0305DFFF7EAFF0134FF232B40A342CB
:100B3400F7DC70BD0FB410B582B004AA02CA0192EA
:100B4400054C200010F030FC2000FFF7E3FF02B05A
:100B540010BC08BC04B0184784E101200FB410B5E0
:100B640082B004AA02CA0192054C200010F01CFCB9
:100B74000448FFF7CFFF2000FFF7CCFFFEE7C04695
:100B840084E101209C5D01200120704710B5040020
:100B9400FFF7FAFFA04207D363001B19DB00181B01
:100BA4004001024BC01810BD0020FCE7D88D012085
:100BB4000120704710B50400FFF7FAFFA04203D3E9
:100BC400A001024C201810BD0020FCE7B8900120C1
:100BD400064AA023D3581B0A9C215258120A1340D8
:100BE400FF201840431E9841C0B27047D09C01209A
:100BF40070B5232808D90300623B012B3BD860233E
:100C040098438021090602E0222830D22049214A53
:100C14009023D35CDB0730D5130080229A58043A22
:100C2400A4241A51083C802212061D592A431A5141
:100C3400184BA0269A593F241500A5432C00920076
:100C44003C252A4022439A5160357C245A59A243B8
:100C5400800020401043585190201A5C7B3CA243F2
:100C64001A548022995004310432995070BD2023C3
:100C740098430749CBE70649C9E7064A8023D45875
:100C84002433D4509C2413595B005B081351CFE7E1
:100C940080000080D09C012010B543001B189A00EE
:100CA4001C4B9B18C3330021595600290DDB194AEC
:100CB40043001B189B00D318C23300241C574B005D
:100CC4005B189B00D218C232147043001B189A00A0
:100CD400104B9B18C23300229A56002A07DB53009C
:100CE4009A1892000B4B9B18C333197010BD094A14
:100CF4004300181880001018B8300368180E1B0B36
:100D040058407F230340D218EE239B009C46624444
:100D14001170EBE7D09C012010B5134A43001B1857
:100D24009B00D3181900B83109680C0E090B4C400C
:100D34007F2121405218EE2189008C466244002113
:100D440051561C00C3342170C233FF241C7040B2BE
:100D54001070002906DB4B005B189B000249C91880
:100D6400C231087010BDC046D09C012010B50100EE
:100D74001A4BAC229A5892093F241440020E000BDD
:100D840050407F2202409B18EE2292009446634416
:100D94000020185607E04300181880000F4B1B185A
:100DA400C33300201856002815DB43001B189A0093
:100DB4000A4B9B18B8331B688B42ECD1074B9B182A
:100DC400C0331B78A34205D0044B9B18C0335B7817
:100DD400DB06E0D510BD01204042FBE7D09C01209A
:100DE40010B5084A94230848D158484307498C460B
:100DF4006044D050000E382105F0ACFD08310800E5
:100E040010BDC046D09C0120FD430300C39E2600B4
:100E140010B50A4AAC23D058000B0003FFF7A6FF15
:100E2400002804DB0002054A9823D05010BD034A71
:100E3400982380210906D150F8E7C046D09C0120B0
:100E4400044AA023D3580220184043425841C0B258
:100E54007047C046D09C012010B5041E17D00F4A1D
:100E6400A023D25880235B058340134214D10B493D
:100E74009C220B4B885803402407C0208005044063
:100E84001C438C500B20FFF7B3FE002010BDFFF76E
:100E9400D7FF0028EBD0F9E70120F7E7D09C012029
:100EA400FFFFFFCF064B84215A5880201A5004328A
:100EB4005A500C315A5C7F3882435A547047C046AA
:100EC400D09C012010B5064B842280219C585C5094
:100ED400985010315A5C012002435A5410BDC04648
:100EE400D09C012010B5074B84215A58141D802032
:100EF4001C5008325A500C315A5C7F3882435A5481
:100F040010BDC046D09C0120F8B507000C001600A7
:100F14004B0F052B0AD8042B0CD3FFF791FF051EAA
:100F240032D0E400E4083C602800F8BDFFF788FFF5
:100F3400051E3AD0200B0003FFF718FF002845DBFD
:100F440043001B189A004D4B9B18C0335B789B06DB
:100F5400DD0F002B5DDA002E0AD043001B189A0027
:100F6400464B9B18C0335B785B06DE0F002B6CDAB4
:100F740043001B189B004148C018BC30016824057D
:100F8400240D0C433C60CFE73C4AA823D450B42141
:100F940053585B0D5B05240BA400394804401C43E3
:100FA40054500420FFF724FEBEE7344AA823D4504B
:100FB400B42153585B0D5B05240BA4003048044056
:100FC4001C4354500420FFF713FEADE7002E1ED03F
:100FD400032320201843002C01DB60201843274AF8
:100FE400A823D450B42553595B0D5B05210B8C0009
:100FF400234E344023435351AC23D4582405240DA9
:1010040009030C43D450FFF7F3FD00258CE70223BA
:10101400DFE71A4AA823D450B427D3595B0D5B05E4
:10102400210B8800164C20400343D351AC23D058E5
:101034000405240D09030C43D450002E03D00320CF
:10104400FFF7D6FD70E70220FAE70C4AA823D45034
:10105400B42553595B0D5B05210B8800084C2040D7
:1010640003435351AC23D0580405240D09030C4306
:10107400D4500120FFF7BCFD350055E7D09C01207A
:10108400FCFF1F00072809D8002908D080235B0033
:10109400834007499C22885803438B507047802320
:1010A4005B00834002499C22885898438850F5E7A6
:1010B400D09C012010B51F2810D9202812D0212837
:1010C40014D0222816D0232818D024281AD0252852
:1010D4001CD01048FFF72EFD002002E080000E4BCC
:1010E400C05810BD0C4A8023D058FAE70A4A8C2312
:1010F400D058F6E7084A8823D058F2E7064AA823CE
:10110400D058EEE7044A9C23D058EAE7024AA023C9
:10111400D058E6E7B05D0120D09C012010B500282E
:1011240005D01F2807D88000174BC15010BD1748A1
:10113400FFF700FDFAE720280DD021280FD0222840
:1011440011D0232813D0242815D0252817D10E4ACE
:10115400A023D150EAE70C4A8023D150E6E70A4A9B
:101164008C23D150E2E7084A8823D150DEE7064AAF
:10117400A823D150DAE7044A9C23D150D6E7044887
:10118400FFF7D8FCD2E7C046D09C0120C45D012003
:10119400DC5D012010B590221201FF21014806F008
:1011A40025FB10BD3CD5012010B5064AAC23D3580D
:1011B4004340FC221201134200D110BDFFF7EAFFA5
:1011C400FBE7C046D09C0120F8B5114A9823D158BA
:1011D400090A3F240C40AC27D05961000D19AB001B
:1011E400D3181D00B8352D681E00C0363678B601F8
:1011F4003543D551BC331D6809198B00D318C1334D
:101204001B781B012B43B0215350FFF7CDFFF8BDD2
:10121400D09C012070B50400FFF73EFD1049AC23BB
:10122400CA58100B000363001B199B00CB181D0048
:10123400B835286092093F2002401800C03002707F
:10124400B0228A58110B0903043801601209C13312
:101254001A702000FFF760FDFFF79CFF70BDC046C9
:10126400D09C012010B5044A9823D3581B0A3F2070
:101274001840FFF7CFFF10BDD09C012010B5FFF739
:10128400AFFDFFF7C7FF10BDF0B585B0060017002E
:101294001D00531E194211D12A0003A8FFF734FE82
:1012A400041E1ED0304AA023D358DB033DD5002DA5
:1012B40020D0042F1AD0FFF76DFF12E02A4BA8228A
:1012C40099500C329858400D4005090B8900274C61
:1012D400214008439850002D06D00520FFF788FCD4
:1012E4000024200005B0F0BD0420F7E73268204B4D
:1012F4001A60E0E7042F14D007D8012F0DD0022F75
:10130400EFD11B4B1B683380EBE7082FE9D1184B57
:101314001B68336000237360E3E7154B1B6833706D
:10132400DFE7134B1B683360DBE733002A00390027
:10133400039801F031FE041ED3D1039D0D4B1B68AD
:10134400D868094BDA6F019280229B5800932B00D6
:101354001C3A09490DF0B4FB280001F0C5F9072037
:10136400FFF746FCBDE7C046D09C0120FCFF1F00F0
:1013740034D30120E4920120EC5D0120F0B5C6468F
:1013840000B584B080462D4A8023D7587D091F229A
:101394002A40D3009B18DB00294A9A181400002322
:1013A400012B05D821688D422AD001332434F7E774
:1013B4002449254B086843430B602448844663440E
:1013C4000B6001242340DC00E418A400141900225B
:1013D400390003A8FFF798FD061E04D1300004B0BD
:1013E40080BCB846F0BD039B5809039040010390AC
:1013F400231D0022202101F0CFFD061E08D0256008
:101404001F231F40E419434662681A600126E5E77A
:10141400039C0F4B1B68D868084BDA6F019280223B
:101424009B5800932300173A0A490DF049FB20000A
:1014340001F05AF90620FFF7DBFBCFE7D09C01202F
:101444003CD50120F8900120FD430300C39E2600F3
:10145400E4920120EC5D012070B586B0EE4A902341
:10146400D35CDB0707D4A023D358DB0703D5FFF7EE
:10147400AFFB002814D104A8FFF780FF002801D196
:1014840001F05AF8E54B1B78002B0ED1049CA20EF8
:101494003D2A01D900F08DFE9300E149CB589F46C7
:1014A4000020FFF7A5FB01F047F8DE4B1B68D86866
:1014B400D94A8023D258049BDB490DF001FB002458
:1014C40009E0D84B1B68D868A200D34BD258D7493F
:1014D4000DF0F6FA01341F2C09DC6307F1D1D14B6E
:1014E4001B68D8682200D2490DF0EAFAE9E7CD4B2F
:1014F4001B68DB6802220121CE480DF04BFBC5E7D7
:101504003F232340362B01D900F053FE9B00CA4AE7
:10151400D3589F46230C1F2213409B00BE495958A1
:10152400A30913409940E40A23001340144201D153
:1015340001F000F89B00B84A995000F0FBFF230C1F
:101544001F2213409B00B4495958A3091340D940A2
:10155400E40A23001340144201D100F0EBFF9B0086
:10156400AD4A995000F0E6FF230C1F2213409B0064
:10157400A9495958A30913401941E40A2300134007
:10158400144201D100F0D6FF9B00A34A995000F009
:10159400D1FF220C1F231A409F4892001158620D5C
:1015A4001A40920012581A409140E40A22001A404C
:1015B4001C4201D100F0BEFF9300195000F0BAFFA5
:1015C400220C1F231A40944892001158620D1A40AD
:1015D400920012581A40D140E40A22001A401C42D8
:1015E40001D100F0A7FF9300195000F0A3FF220CD3
:1015F4001F231A40884892001158620D1A40920025
:1016040012581A401141E40A22001A401C4201D126
:1016140000F090FF9300195000F08CFF630D1F241D
:1016240023409B007C4A9858FFF74CFC00F084FF51
:10163400630D1F210B40784A9B0098588023D25891
:101644000832E40A23000B400C4202D09B0072498A
:101654005A50FFF737FC00F06FFF0820FFF7C8FA75
:1016640000F06AFF0920FFF7C3FA00F065FF6A4A39
:101674008C23D158E40A1F2223001340144201D1C1
:1016840000F058FF9B00644A995000F053FF630D2B
:101694001F242340604A9B0099588C23D15000F0AA
:1016A40049FF5D4A8823D158E40A1F2223001340CE
:1016B400144201D100F03EFF9B00574A995000F0BC
:1016C40039FF630D1F242340534A9B0099588823F4
:1016D400D15000F02FFF620D1F2632404E4D920074
:1016E4005059C117230C33409B005A59D31705F0A6
:1016F40075FF88352860696000F01CFF630D1F26A4
:101704003340454D9B0058590021220C3240920031
:1017140052590B0005F062FF88352860696000F0BB
:1017240009FF230C1F2213409B003B4A9D58002DA8
:1017340001D100F0FFFE630D1F24234014009B0021
:101744009E582900300005F0DDF88823E050290078
:10175400300005F0D7F88C23E15000F0EBFE230CA9
:101764001F2213409B002C4A9D58002D01D100F0EC
:10177400E1FE630D1F24234014009B009E582900A2
:10178400300005F0E7F88823E0502900300005F028
:10179400E1F88C23E15000F0CDFE620D1F200240E1
:1017A4001D4992005258230C03409B005B580020B3
:1017B400D1185A404B40934383420FDB05910028D4
:1017C4000ED1E40A1F2223001340144201D100F079
:1017D400B1FE9B00104A995000F0ACFE0130EDE7D9
:1017E4000C20FFF705FA00F0A7FE630D1F2213403B
:1017F40009489B001D58230C13409B001958491994
:10180400E40A23001340144201D100F093FE9B002C
:10181400195000F08FFEC046D09C0120F6E1012053
:10182400705E0120E49201201C5E0120345E0120E0
:101834002C5E01203C5E0120685F0120630D1F20A7
:101844000340F5499B005B58220C02409200525819
:101854000020991A53404A40934383420FDB059179
:1018640000280ED1E40A1F2223001340144201D1A0
:1018740000F060FE9B00E84A995000F05BFE0130E6
:10188400EDE70C20FFF7B4F900F056FE630D1F22BC
:101894001340E1489B001958230C13409B001B582C
:1018A400C91AE40A23001340144201D100F042FE95
:1018B4009B00195000F03EFE630D1F221340D648D2
:1018C4009B001958230C13409B001B581940E40A31
:1018D40023001340144201D100F02CFE9B00195048
:1018E40000F028FE630D1F221340CB489B001D58B7
:1018F400230C13409B0019582943E40A2300134086
:10190400144201D100F016FE9B00195000F012FEA3
:10191400630D1F221340C0489B001D58230C134025
:101924009B0019586940E40A23001340144201D172
:1019340000F000FE9B00195000F0FCFD630D1F2118
:101944000B40B5489B001D58220C0A4092001358C6
:101954002B43DB43E40A22000A400C4201D100F08D
:10196400E9FD9200135000F0E5FD620D1F200240D6
:10197400A94992005558230C03409B005B5801224F
:101984009D4200DB0022E40A1F2123000B400C428D
:1019940001D100F0CFFD9B009F495A5000F0CAFDD1
:1019A400630D1F210B409C489B001B58220C0A40CE
:1019B4009200125893429B415B42E40A22000A407F
:1019C4000C4201D100F0B6FD9200135000F0B2FDBC
:1019D400620D1F200240904992005258230C03408C
:1019E4009B005B589A4201DA00F0A4FD1238FFF71D
:1019F400FFF800F0A1FD620D1F200240864992000D
:101A04005258230C03409B005B58934201D900F0C9
:101A140091FD1238FFF7ECF800F08EFD620D1F20E7
:101A240002407D4992005258230C03409B005B58AE
:101A34009A4201DB00F07EFD1238FFF7D9F800F07E
:101A44007BFD620D1F200240734992005258230C03
:101A540003409B005B58934201D800F06BFD1238A1
:101A6400FFF7C6F800F068FD620D1F2002406A49C6
:101A740092005258230C03409B005B58934201D0C0
:101A840000F058FD1238FFF7B3F800F055FD620D71
:101A94001F200240604992005258230C03409B00CF
:101AA4005B58934201D100F045FD1238FFF7A0F8CE
:101AB40000F042FD220C1F2313400D226A441370D0
:101AC400132B00D975E39B00544AD3589F46524ABE
:101AD4008023D3580833D367620D1F2313409B0020
:101AE4004D4A9B58002B01DB00F024FD8423D05881
:101AF40024B2A4000019FFF7E5F900F01DFD464AE1
:101B04008023D3580833D367620D1F2313409B00EF
:101B1400414A9B58002B01DA00F00CFD8423D05875
:101B240024B2A4000019FFF7CDF900F005FD3A4AEC
:101B34008023D3580833D367620D1F2313409B00BF
:101B4400354A9B58002B03DBFFF7CCF900F0F4FC7B
:101B54008423D05824B2A4000019FFF7B3F900F08D
:101B6400EBFC2D4A8023D3580833D367620D1F231F
:101B740013409B00284A9B58002B08DB8423D05831
:101B840024B2A4000019FFF79DF900F0D5FCFFF77B
:101B9400A9F900F0D1FC630D1F2213409B001E4ADB
:101BA4009B5824B2A34201DA00F0C4FC0D20FFF7D5
:101BB4001FF800F0C1FC630D1F2213409B00164A5E
:101BC4009B5824B29C4201D900F0B4FC0D20FFF7CD
:101BD4000FF800F0B1FC630D1F2213409B000E4A66
:101BE4009B5824B2A34201DB00F0A4FC0D20FEF7B5
:101BF400FFFF00F0A1FC630D1F2213409B00064A67
:101C04009B5824B29C4201D800F094FC0D20FEF7AE
:101C1400EFFF00F091FCC046D09C012044600120FD
:101C2400630D1F2213409B00DE4A9B5824B2A3423B
:101C340001D000F07FFC0D20FEF7DAFF00F07CFC01
:101C4400630D1F2213409B00D64A9B5824B29C422A
:101C540001D100F06FFC0D20FEF7CAFF00F06CFC10
:101C6400D04A8023D3580833D367CE4A8423D0582C
:101C7400000F0007A40124092043FFF723F900F013
:101C84005BFC620D1F231A40C64992005258200C77
:101C940003409B005B58934201D000F04BFC84232B
:101CA400C85824B2A4000019FFF70CF900F044FC52
:101CB400620D1F231A40BB4992005258200C034066
:101CC4009B005B58934201D100F034FC8423C85834
:101CD40024B2A4000019FFF7F5F800F02DFC620D02
:101CE4001F2313409B00AF4A9B58002B01DD00F0DB
:101CF40021FC8423D05824B2A4000019FFF7E2F891
:101D040000F01AFC620D1F2313409B00A54A9B5848
:101D1400002B01DC00F00EFC8423D05824B2A40074
:101D24000019FFF7CFF800F007FC22B2610D1F2362
:101D34000B409B009B495B580020D1185A404B40F4
:101D440093430DD4059100280CD1240C1F221300B9
:101D54002340224200D1EDE39B00924A9950E9E3EB
:101D64000130EFE70C20FEF743FFE5E321B2630DFA
:101D74001F2213409B008B481B58C918240C1300C6
:101D84002340224200D1D5E39B001950D2E3620DD7
:101D94001F2313409B00834A9A5823B201219A427D
:101DA40000DB0021240C1F231A002240234200D10F
:101DB400C0E392007B4BD150BCE3630D1F22134060
:101DC4009B0078495B5821B28B429B415B42240CB7
:101DD40011002140224200D1ACE38900714A8B50AA
:101DE400A8E3630D1F2213409B006E495958230436
:101DF4001B0C0B40240C11002140224200D199E31A
:101E04008900684A8B5095E3630D1F2213409B00A1
:101E14006449595823041B0C0B43240C1100214022
:101E2400224200D186E389005E4A8B5082E3630D2F
:101E34001F2213409B005B49595823041B0C4B4041
:101E4400240C11002140224200D173E38900554A39
:101E54008B506FE32104240C1F231A0022402342D9
:101E640000D167E392004F4BD15063E30020FEF7AB
:101E7400F3FF002800D15FE3049C620D1F2313408D
:101E8400102B00D995E19B00474AD3589F46630520
:101E940000D08EE1E20A1F3313400F2B00D988E1F2
:101EA4009B00424AD3589F463E4A9823D158240C5B
:101EB4001F2223001340144200D13BE39B00394A04
:101EC400995037E3FEF78CFF0002240C1F222300F5
:101ED4001340144200D12DE39B00324A985029E369
:101EE400304AB023D158240C1F222300134014423B
:101EF40000D11FE39B002B4A99501BE3294AB423CA
:101F0400D158240C1F2223001340144200D111E3A2
:101F14009B00244A99500DE3224AA823D158240C4B
:101F24001F2223001340144200D103E39B001D4AE7
:101F34009950FFE21B4AAC23D158240C1F222300E2
:101F44001340144200D1F5E29B00164A9950F1E285
:101F5400144AA023D158240C1F22230013401442F6
:101F640000D1E7E29B000F4A9950E3E20D4A9C231B
:101F7400D158240C1F2223001340144200D1D9E26B
:101F84009B00084A9950D5E2064AA423D158240C50
:101F94001F2223001340144200D1CBE29B00014ACC
:101FA4009950C7E2D09C012094600120D8600120A0
:101FB400240C1F2223001340144200D1BAE29B00D8
:101FC400CD4A882189009950B4E2630500D0F0E03D
:101FD400E20A1F3313400E2B00D9EAE09B00C74AE4
:101FE400D3589F46230C1F242340C34A9B0099586F
:101FF4009823D1509EE2230C1F242340BE4A9B0009
:102004009958B023D15095E2BB49B4200B58DB0258
:10201400DB0A220C1F24224092005258520D520512
:1020240013430B5086E2230C1F242340B24A9B0027
:102034009958A823D1507DE2AF4AAC215058230CC3
:102044001F2423409B009B585350FFF7ADF871E2C7
:10205400A949A020AA4B0A581340220C1F2422404D
:1020640092005258A74C224013430B5062E2A249FB
:102074009C20A54B0A581340220C1F242240920096
:102084005258A24C224013430B5053E2230C1F24FA
:102094002340994A9B009958A423D1504AE29C4B6F
:1020A4009C4200D146E284E09A4B1C4200D080E07E
:1020B4003F231C40102C7CD8A400974B1B599F46EF
:1020C400FFF782F836E2FFF7CDF833E2FFF7D6F8F0
:1020D40030E2FEF79DFE2DE2874AA02013580F241C
:1020E4001900A1439B0823400B4313509021535CD8
:1020F4009E38834353541DE20120FEF7ADFE0028B1
:1021040000D119E2049B854A1A4085498A4250D17C
:102114001B0C1F210A001A40194200D10AE2930045
:10212400754A0021995005E20220FEF795FE002829
:102134003FD101E2FEF784FE00283AD0794B9C425D
:1021440037D100F0ABFF002800D0F3E131E0620D9D
:102154001F231A40684992005258200C03409B00E8
:102164005B58934202D0FEF7BDFEE5E18423C858D4
:1021740024B2A4000019FEF7A5FEDDE1620D1F23C1
:102184001A405D4992005258200C03409B005B5852
:10219400934207D08423C85824B2A4000019FEF740
:1021A40091FEC9E1FEF79EFEC6E13F231C403B2C95
:1021B4000AD00499504A8023D2588B0E3F200840FD
:1021C40000905948FEF7B6FC0A20FEF711FDB3E172
:1021D400620D1F2313409B00474A9B5821B2C91824
:1021E400002301220D206844FFF74EF8002800D197
:1021F400A2E10D236B4400201856049B1B0C1F21E5
:102204000A001A40194200D194E193003A4A9850C6
:1022140090E1620D1F2313409B00374A9B5821B263
:10222400C918002302220E206844FFF72DF8002865
:1022340000D181E10E236B440020185E049B1B0C2B
:102244001F210A001A40194200D173E193002A4A5F
:1022540098506FE10D236B441A70620D1F231A40CE
:1022640025499200525825B2AD18240C23409B00F6
:102274005C5803232E009E4300230422310005A84A
:10228400FFF702F8002800D156E10D236B441B78B8
:102294001A074BD55B071CD50323190029402B4291
:1022A40015D0CB009C400422521AD200059B9340C7
:1022B4000593D3400593234305930123042231005E
:1022C40005A8FEF7E1FF002800D033E134E10594CE
:1022D400F3E70321A9430CD0CB00DC400422521ABB
:1022E400D200059BD3400593934005932343059364
:1022F400E3E70594E1E7C046D09C01201861012082
:10230400C000FC0F3FFF03F0FFFC3FFF0003C000D1
:10231400FFFF0041E0FFFF0154610120FFFFE0FFE8
:10232400000040447667644F405E01205B071DD582
:102334000323190029402B4216D0CB00059ADA401A
:10234400130005920422521AD200D440944023432D
:10235400049A120C1F2001001140104200D1E9E040
:102364008A0098495350E5E0059BF1E70321A9430E
:102374000BD0CB00059A9A40130005920422521AFE
:10238400D2009440D4402343E2E7059BE0E7620D8A
:102394001F2313409B008B4A9B5821B2C91800236A
:1023A400042205A8FEF770FF002800D1C4E00598B8
:1023B400049B1B0C1F210A001A40194200D1B9E0EA
:1023C4009300804A9850B5E0620D1F2313409B0090
:1023D4007C4A9B5821B2C918002301220D2068446D
:1023E400FEF752FF002800D1A6E00D236B441878B5
:1023F400049B1B0C1F210A001A40194200D199E0CA
:102404009300704A985095E0620D1F2313409B007F
:102414006C4A9B5821B2C918002302220E2068443A
:10242400FEF732FF002800D186E00E236B441888A3
:10243400049B1B0C1F210A001A4019427AD09300F6
:10244400604A985076E0220C1F231A405D4992009E
:1024540052580D2068440270620D13409B005B5873
:1024640021B2C91801230122FEF70EFF002861D111
:1024740062E0220C1F231A405249920052580E2047
:1024840068440280620D13409B005B5821B2C91856
:1024940001230222FEF7F8FE00284BD14CE0220C67
:1024A4001F231A404749920052580592620D134067
:1024B4009B005B5821B2C9180123042205A8FEF72A
:1024C400E3FE002836D137E0620D1F2313409B0042
:1024D4003C4A9B5821B2C9180023042205A8FEF7E0
:1024E400D3FE002828D00598049B1B0C1F210A004A
:1024F4001A40194202D09300324A9850314990222E
:102504008B5C022003438B5414E02E4A9023D35C4B
:102514009B0713D4240C1F2213002340224203D010
:102524009B00284A00219950264990228B5C022066
:1025340083438B54FEF7B6FC06B070BD220C1F23F8
:102544001A402049920052580592620D13409B0094
:10255400595824B261180123042205A8FEF794FEF9
:102564000028E9D0049B1B0C1F210A001A401942C1
:10257400DAD09300134A1E399950D5E70120FEF7AB
:102584006BFC002800D01FE6D6E70120FEF764FCB0
:10259400002800D018E6CFE70220FEF75DFC0028F3
:1025A40000D011E6C8E70120FEF756FC002800D051
:1025B4000AE6C1E70120FEF74FFC002800D003E63D
:1025C400BAE7C046D09C012010B5234C8722D20024
:1025D4000021200005F00AF98023204AE250043348
:1025E4001F4AE250FEF7D6FD002212E0510089187E
:1025F4008800194B1B181900B831802000060860A8
:10260400D1B24C1E1800C23004700131C3331970AA
:1026140001323F2AEAD9104A124BFF21D154002239
:1026240008E00D4B9B18EE2189008C466344FF2182
:10263400197001327F2AF4D9074BB8229A58110E27
:10264400120B51407F220A409B18EE2292009446BE
:10265400634400221A7010BDD09C01200000C0BF4A
:102664000400C0BFB703000010B504000020042913
:1026740008D12402844205D1824203D1024A0130A6
:1026840012681A6010BDC04638D3012010B500028C
:1026940023D1002A0ED001290AD9114819880388A8
:1026A400104C0B402340C024E40121400B43038021
:1026B400100010BD022908D004290AD00129F7D13D
:1026C400074A12881A700122F2E7054A12881A8012
:1026D400F9E7034A12881A60F5E70022E8E7C046E2
:1026E400FC900120FF99FFFF014B18607047C04622
:1026F40038D301208021B82010B5094A4904400587
:1027040000F00AFC0023984207D08021F020054AFB
:102714004904400500F000FC03000120184010BDEE
:10272400392400205D24002070B50C0004A9097828
:10273400002A16D022789A4202D38A420FD8130074
:10274400124AD27A520708D41A0991005218520038
:10275400D2B20F210B40D318DBB2037070BD0B0053
:10276400EEE70678094BDB7A5B070CD40A213000CC
:1027740004F0F0F80001C5B20A21300004F0EAF8D0
:10278400C9B26D18EEB22670E8E7C0466CD00120DD
:1027940010B502001F4BDB7A06201840042827D00E
:1027A40031D8002817D1102111400C110F231340E8
:1027B4008908611849005B18DBB2002A09DB181884
:1027C400C0B2013843B2002B20DB172B1FDD1723C7
:1027D4001DE00C30F3E73023134019110F20104093
:1027E4009B08CB185B00C018C0B2013843B2EAE7BB
:1027F4000F201040002A04DB0023C018013843B224
:10280400E1E70C23F9E71F231340DCE70023D8B2E8
:1028140010BDC0466CD0012070B504001E4BDA7A9E
:1028240006231340042B27D018D8002B19D10B28CA
:1028340015D980256D420C21200004F08BF8CEB20E
:1028440001360A21300004F05DF804012C4364B21F
:102854000A21300004F056F80C43E0B270BD0025A4
:10286400E9E70A2104F076F805010A21200004F0C2
:1028740071F80D43E8B2F1E70B280AD980256D42BF
:102884000C21200004F066F8013148B22843C0B29C
:10289400E4E70025F4E7C0466CD0012070B582B0AF
:1028A40014001E000202120A01294CD183074DD1E3
:1028B400950880239B009A424AD20D2D37D8AB004D
:1028C400254AD3589F46254B5B5D25482818254A41
:1028D400525D009222003100FFF726FF012033E011
:1028E400002C07D000203056FFF752FF1C4B5855E0
:1028F400200029E01A4B585DFFF78EFF307001204D
:1029040022E0002C01D020001EE0154B1A7B32700F
:1029140000221A7300210520FEF7B4FB012013E006
:10292400002C17D10E4B5B7B337001200CE0002C84
:1029340004D032780A4B5A55200005E0084B5B5D01
:102944003370012000E0002002B070BD0020FBE7DE
:102954000020F9E72000F7E798610120F4610120E5
:102964006CD00120E8610120F8B566498D7A0F2208
:102974002A4080240E5B3018C304DB0C0B539E42A8
:1029840008D9C97A49B2002904DB802149420D43A0
:102994005C498D72002A10D05B498A5C3100D140B9
:1029A400D040814238D0574A117B402001431173F3
:1029B400D27A520632D4002400E000249E421ED96A
:1029C400504B997A7F220A409A72DD7ADB7A5BB2A5
:1029D400002B0EDB4B4A13780133DBB213703C2B14
:1029E4001ED0484A137B10210B431373EB0600D50A
:1029F4000124444B1A785B789A4200D16DE0002C94
:102A040009D0404A117B80235B420B43137301219D
:102A14000520FEF737FBF8BD0024CFE70124CDE7FE
:102A24000023137093780133DBB293703C2BD8D11D
:102A34000023937013790133DBB21371182BD0D1B7
:102A4400577A3E00314B9C4666440321300003F024
:102A540081FF89B2002911D16431300003F07AFF7B
:102A640089B200292FD19131FF31300003F072FF78
:102A740089B200292AD1264B013B01E0254B013BB9
:102A8400204A117A585C0023137193790133DBB225
:102A94009371082B1DD01B4AD3795E1CD6718342D7
:102AA4009FD113000122DA710131C9B219720D29C3
:102AB40097D11A720137FFB25F72632F00D090E78B
:102AC40000225A728DE7124B013BD9E7114B013BAF
:102AD400D6E7130001229A71DDE70A4B9A78DB7876
:102AE4009A4200D08BE7074B1A795B799A4200D05F
:102AF40085E7044A137B20210B431373AB0600D5EF
:102B04007FE77CE76CD00120006201206C070000A5
:102B1400D0610120DC61012010B5064B0622DA7277
:102B24007A325A738021E820034A4904400500F0B0
:102B3400F3F910BD6CD001206D260020F0B53148AA
:102B4400DE4657464E4645460300E0B5FF335A7C01
:102B5400002183B0D4074BD51F310A405A74DA7C64
:102B64000700934640229246203A914660329046AE
:102B7400F022D20008259446234C1C39FE372278D3
:102B8400002A03D056465A7C32435A7462780F2A7C
:102B940003D94E465A7C32435A745A4615420ED0D3
:102BA4005A7C7F2A0BD846460A0232436646324094
:102BB40001927E8A154A1640019A32437A826D0840
:102BC400443C0139DBD2FF30437C00219A070AD50B
:102BD400242201311A40242A05D0433119404039B6
:102BE4004A425141C9B277229343882B00D1012133
:102BF4000420FEF747FA03B0F0BCBB46B246A94630
:102C0400A046F0BDECCE0120F9CF01207FF8FFFFF4
:102C1400F8B50C000023032834D801330BF0E4FE8C
:102C240002346A3C35490A00FF32527C13405B018E
:102C3400900701D540200343500702D5802040016E
:102C44000343100702D58020C0010343D00601D5F9
:102C540008200343900602D58020800103435006D8
:102C640001D58020034352B2002A07DAFF318A7C5F
:102C74005207520D1343224A13439BB22380FFF79A
:102C84005DFF01231800F8BD1C4AFF32527C1A4232
:102C940004D11C48FDF74EFF0023EFE703221A4836
:102CA400010003784139002B20D001268578354274
:102CB40018D0B543C02685700D00403528783602FB
:102CC4000F5C0130C0B23E4340280DD0287008008C
:102CD400013B4130037000231202423132430B7036
:102CE40093B2CBE78026E7E70020EFE74438013AC8
:102CF400D6D2C3E7014BFF33DB7CBFE7ECCE012028
:102D04000080FFFF10620120F9CF0120F8B5070011
:102D1400032824D8164B01251A00FF32527C2A427C
:102D24001DD0442242439A18100043300078800793
:102D340015D5100016004130047840363F2C0FD9C9
:102D4400F2781543F570442078431B1842331A78FF
:102D54000132D2B2002A00D01A70FFF7EFFEF8BD9C
:102D64003578661C06703F20641904401155EAE763
:102D7400ECCE0120002270B5032810D80BF034FEED
:102D8400022B40443548CB060BD58A220021520041
:102D940004F02CFDFFF7D2FEFFF7D0FE0122100055
:102DA40070BD01228B09134093404C091440234306
:102DB4000C0B1440A40023438C0B1440C90811408D
:102DC400E400FF30234309011943437C1E3293433B
:102DD40019434174E0E70022CBB24807DFD407323D
:102DE4001A4044235A431D4B02209B1801224033AE
:102DF400090B0A40D978520081431143D970CBE7BB
:102E0400164BFF33D974C7E7144CCDB22300FF33FC
:102E14005B7CDB0702D41248FDF7A0FE2300FF33DE
:102E24005B7C7F2B02D80F48FDF798FE2600FF3607
:102E3400B07C29004007400F00F028F9737CDB06C2
:102E440005D5B07C29004007400FFFF75FFF7F22C4
:102E5400FF34637C134063749EE7C046ECCE0120CC
:102E64002A6201204762012073B51D000400072374
:102E74001C40184202D00024200076BD0002030A40
:102E8400182BF8D8C00AC0B202290FD0042918D0D0
:102E94000129F1D1002AEED16B469E1D3100FFF7C6
:102EA400B7FE041EE7D033882B70E5E7002A03D071
:102EB4002988FFF75FFF02E02900FFF7A9FE04005D
:102EC400DAE7002A02D0296889B2F2E76B469E1D30
:102ED4003100FFF79DFE041ECDD033882B60CBE775
:102EE4008A2210B50A4C00215200200004F07EFC16
:102EF400FFF724FE01238021E020FF34627C490493
:102F040013434005034A637400F006F810BDC0463D
:102F1400ECCE0120392C002070B5002301E00133F0
:102F2400DBB2082B18D85C00E418A400194D2C1946
:102F34006568002DF3D05C00E418A400154EA45974
:102F4400844202D82D19854221D88442E7D34518FA
:102F5400AC42E4D2002019E00023082B15D81D0050
:102F64005C00E418A4000B4E34196468002C02D0F1
:102F74000133DBB2F1E734005B005E19B600305177
:102F8400A01941608260012000E0002070BD002093
:102F9400FCE7C04600D00120F8B50F00002400E093
:102FA4000134082C17D865002D19AD0010496D584F
:102FB4008542F5D866003619B6008E1971686D1809
:102FC4008542EDD9B4687F210A40511E8A41D2B2AC
:102FD4003900A04708E0530607D0064903003A0029
:102FE4000548FDF7A7FD0020F8BD0449F6E7C046F3
:102FF40000D00120646201206C620120BC5D0120CC
:1030040010B5FDF72BFB012010BD10B5030008001F
:10301400012B07D0022B0AD0002B01D0002010BDB9
:103024000120FCE7110000F081F90120F7E711000D
:1030340000F090F90120F2E710B5124CA446604468
:10304400002A1DD1042908D001290BD002290ED150
:103054000D4A125A1A80012013E00B4A12581A60C2
:1030640001200EE0084A125C1A70012009E0064AA9
:1030740080180A000100180004F0BEFB012000E0E3
:10308400002010BD000040E00091012010B503288D
:1030940000D010BD0800FDF731FDFAE7F0B5C646D3
:1030A40000B582B00120FEF705F80400052800D918
:1030B4008FE083004C4AD3589F460420FDF7FAFF63
:1030C40001280FD0022810D0002809D021000220A6
:1030D400FEF724F80126300002B080BCB846F0BDEB
:1030E4000124F3E7C0246404F0E70124EEE704209C
:1030F400FDF7E0FFC0B2FDF701FD0126EBE701AAF1
:1031040000210020FFF781FF061EE4D00199022070
:10311400FEF704F8DFE70420FDF7CCFF8046052026
:10312400FDF7C8FF0700314A41460120FFF76DFF54
:1031340005000600002408E02C4BE318E0190122E6
:103144004021FDF78BFA4034A4B280239B009C42BB
:10315400F2D329000220FDF7E1FF002EBBD12B00A2
:103164003A0041462248FDF7F9FC0136B3E7042052
:10317400FDF7A0FF07000520FDF79CFF05000024D4
:1031840008E01A4BE318601900224021FDF766FAA3
:103194004034A4B280239B009C42F2D3134A3900EA
:1031A4000220FFF732FF0400060001000220FDF7B1
:1031B400B5FF002C00D08EE723002A0039000D480B
:1031C400FDF7CCFC013686E70B48FDF7C7FC01266A
:1031D40081E72020FDF76EFF020021000748FDF77C
:1031E400A9FC002677E7C046146301203CD30120E4
:1031F400A4620120C4620120E4620120FC62012077
:1032040010B5C0212C4A49040020FFF785FE002890
:1032140035D08821FE20294A49004005FFF77CFE6D
:10322400002831D0FFF766FA002832D0FFF758FEA5
:10323400002833D0FFF770FC002834D000F054F895
:10324400002835D01E48FDF775FC0823197810397D
:103254001C48FDF76FFC1C48FDF76CFCC0204004C3
:10326400FFF7B2F900240134A4B2C0204004FEF7F1
:10327400F3F82305F7D10120FFF776FBF3E71349B1
:103284001348FDF76BFCC4E712491148FDF766FCCF
:10329400C8E711490E48FDF761FCC7E70F490C4820
:1032A400FDF75CFCC6E70E490948FDF757FCC5E786
:1032B4000C48FDF753FCC5E7D12D0020092E002052
:1032C4007863012090630120946301202C63012022
:1032D40030630120446301204863012050630120CE
:1032E400586301206063012010B50020FDF74EFCF7
:1032F40001686030012206F099FF041E08D1032200
:103304000749084806F0C2FF43425841C0B210BD05
:103314000AF010FF010022000348FDF71FFCEEE74E
:10332400D063012008A20120B463012070B50C0011
:103334004202074D0023280007F0D3FB802200231C
:1033440092002100280007F054F9012070BDC04606
:1033540008A2012070B50C004202074D002328008A
:1033640007F0BFFB8022002392002100280007F011
:1033740068FA012070BDC04608A20120F0B5DE46FF
:1033840057464E464546E0B583B080468B46924646
:103394000193A0235B0099462AE0013C002C1ED037
:1033A40025007D432900300003F0D4FA4045F4D1D0
:1033B4002900300003F0CEFA0029EED1144B4A461E
:1033C40053435A46136053461F60019B1C600120FF
:1033D40003B0F0BCBB46B246A946A046F0BD013FCF
:1033E400002F01D03C00D9E701235B429C46E14415
:1033F4004B460F2B09D9074E4B465E43064BF2183A
:10340400064B9A42F0D80727EAE70020E0E7C046D7
:10341400001BB700E02E0000508EF4FF50F80C00A3
:1034240010B58300084A944663441C6840226240F5
:10343400C02414408022520113431C60C000034B7B
:103444009C466044416010BD04C0014000400140FE
:1034540080000B4B9C46604400290DD00823002AB1
:103464000CD004221343026853400C2213408022E0
:1034740052011043036070470023F0E70022F1E794
:1034840004C001408000064B9C46604403684B40E6
:103494000121194080235B01184301607047C04635
:1034A40004C001408000064B9C4660440901036847
:1034B40059403023194080235B0118430160704751
:1034C40004C0014010B501238340D0221206936248
:1034D40093610521FFF7A4FF10BD0000034B1B6897
:1034E40002201840431E9841C0B2704700C00640F5
:1034F400EFF3108072B6034B1B68002BFBD0BFF3B5
:103504005F8F70472C0100D0BFF35F8F024B002206
:103514001A6080F3108870472C0100D0F8B50600BB
:103524000C001500FFF7E4FFE308F718F15C07222D
:103534002240012393400B4205D1DBB20B433B7085
:10354400FFF7E2FFF8BD2100280002F0EFF8F0B524
:1035540083B00600019114001F00FFF7C9FF00E0CB
:103564000134BC420CD8E308F518F35C0721214070
:1035740001228A401A42F3D1D2B21A432A7001E0DE
:1035840001246442FFF7C0FF002C02DB200003B0DB
:10359400F0BD019B002BF9D0089802F0C7F8000099
:1035A400002307E0054A9A189200BFF35F8F0021B9
:1035B400116001331F2BF5D97047C0464000003419
:1035C400054A1078431CDBB21370172B02D9130081
:1035D40010221A707047C04610920120074B9B6856
:1035E400103080001950BFF35F8FBFF35F8F044B1F
:1035F4000021196082F310887047C04600ED00E096
:10360400240100D010B5091A081F0A4B9C466144D6
:10361400094A914208D8C30706D440104005400D1A
:10362400064B184380B210BD054B064AA321064839
:1036340001F0E2FFFC070000FE0F000000E0FFFFC6
:10364400E06301202C6601201064012010B5091AE2
:1036540004394C08090B08D14905490D064A1143A0
:103664000180064B2343438010BD054B054AAB2123
:10367400054801F0C1FFC04600F0FFFF00F8FFFF5E
:103684004864012000660120106401200123834066
:10369400034A10681840431E9841C0B27047C046A0
:1036A40000E100E0002904D0034B1860034B1860CC
:1036B4007047034B1860FBE780E200E000E100E0A4
:1036C40080E100E010B5012383401800FFF7EAFF12
:1036D40010BD0000024B9B6810308000C05870473A
:1036E40000ED00E070B504000D00EFF3108672B633
:1036F4000C4B1B68002BFBD0BFF35F8F2000FFF740
:10370400E9FF094B984201D0A84205D132002900B3
:103714002000FFF763FF70BD044B054A862105486E
:1037240001F06AFF240100D0CD010010586401208B
:103734006066012010640120F0B5DE4657464E460F
:103744004546E0B589B0814601911500EFF3108A32
:1037540072B6744B1B68002BFBD0BFF35F8F724BA8
:103764000027DF57002F40DB7C00E419A4006F48DA
:1037740024180622A2566C4B1A706D4B9A684B465D
:1037840010339B00D35898461E001B1A5F2B38D960
:10379400684B98452FD105AE674B33807B009B4621
:1037A400D8198000614B9846404402306349FFF7C2
:1037B40029FF7080624BB380FF23B371F571019BC5
:1037C40007935F44BF0047440ECE0EC701231C433A
:1037D400A046524641464846FFF700FF09B0F0BCF8
:1037E400BB46B246A946A046F0BD564B564AD72121
:1037F400564801F001FF564B534ADE21534801F06D
:10380400FBFEC04340440C2103F0A4F8002912D16C
:1038140001239E43B34633000026DA79AA4211D924
:103824000621595600290CDB4A00521892001E004A
:103834003E4B9B18F1E7474B434AEA21434801F0CA
:10384400DBFE1E00002E3AD005AB434A1A80813AB3
:103854005A800623F3560293002B17DA3F4805AB30
:103864009B469880029A9A71DD71019A0792301DE5
:103874002100FFF7C7FEB080B7717B00DB199B0006
:103884002A4FFF185B4607CB07C7A2E77800C01989
:103894008000264BC0180430321DB388D90A1C2975
:1038A40007D15B055915023149005118FFF7AAFEEB
:1038B400D5E72B4B2B4AB121244801F09DFE05AEE0
:1038C4001D4B33807B000293D8198000174A904621
:1038D400020042440392901C1849FFF793FE708043
:1038E400039A101D5946FFF78DFEB0801E4B5A46B1
:1038F4004146521A524153431B0DB371F571019A5B
:103904000792029B9C466744BF0047440ECE0EC7F5
:10391400114B5A461380813B538001231C43A0461C
:1039240057E7C046240100D0F5E10120149201209C
:1039340000ED00E0CD01001000A1FFFF7492012012
:1039440001BDFFFF9064012048660120106401203E
:10395400B8640120E06401200148000001BD0000BA
:103964005465012038660120AAAA0000F0B5CE46AD
:10397400474680B583B006000D00EFF3108872B699
:10398400564B1B68002BFBD0BFF35F8F544B9A68D8
:1039940034001034A300D758524B9F4207D0AF4293
:1039A40000D198E00197504BFB1A5F2B09D942468E
:1039B40039003000FFF712FE03B0C0BCB946B04670
:1039C400F0BD3000FFF762FE814600213000FFF7B2
:1039D40079FEBFF35F8FEFF30581002901D08C429C
:1039E40011D10123019C9C430022A368AB4212D055
:1039F4000622A256002A0DDB53009B189B002200CE
:103A0400394CE418F1E73621384B394AFF3139484B
:103A140001F0F2FD2200AB4256D106256557002D78
:103A240038DB6B005B199A002F4B9B189A68A260D5
:103A3400DA79E27106229A56A2719B795BB2002B65
:103A44000FDA2D48A0806B005B199B00264AD3181F
:103A54002A4A11789971157049463000FFF732FEF1
:103A6400A5E7201D6B005B199B001F4A9B181A1DBC
:103A74009B88D90A1C2907D15B055B1502335900C1
:103A84005118FFF7BFFDDDE71D4B1E4AB121194850
:103A940001F0B2FD002912D1002A0ED0FF23937148
:103AA400194B9380154A1378A371184B0E49641A65
:103AB400644163431B0D1370CEE70A4FF2E7201DE8
:103AC4001349FFF7C3FDC7E76A21124B084AFF31C8
:103AD400084801F091FD034F69E7C046240100D076
:103AE40000ED00E0CD010010149201206C6501206E
:103AF400186601201064012001BD0000F5E10120D9
:103B0400546501203866012001BDFFFFAAAA000008
:103B14007E920120A065012070B5012202432E4B44
:103B2400D31A5F2B28D8EFF30583002B2BD0EFF3A8
:103B3400108C72B6294909680029FBD0BFF35F8F46
:103B4400274C0100244D491B49414C43240D64B2C8
:103B5400244989689B00C95891421BD00022072A36
:103B640032D853009B189B001B49CB189B795BB23E
:103B7400A3421FD00132F2E7C7211B4B1B4A490065
:103B84001B4801F039FD92211A4B184AFF3118489D
:103B940001F032FD134A92681749D150174B1A7835
:103BA40082711C70BFF35F8F0C4B00221A608CF380
:103BB400108870BD0D005300991889006918FF26FC
:103BC4008E710F4A8A80E9E7D1210E4B074A4900DA
:103BD400074801F011FDC04614920120240100D0D1
:103BE400AAAA000000ED00E0A8650120E465012018
:103BF40010640120D0650120CD010010F5E1012001
:103C040001BDFFFFDC6501200022044B02E00449F2
:103C140002C30132072AFAD97047C04600E400E023
:103C24008080808070B504000E001500FFF7C8FC8A
:103C34000100200000F006F8A680E580BFF35F8F46
:103C440070BD0000024B9C466144890001607047CE
:103C54004000003410B50400FFF7B2FC010020005E
:103C6400FFF7F0FFFF232371BFF35F8F10BD10B583
:103C74000400FFF7A5FC01002000FFF7E3FFFF238A
:103C8400237100236371BFF35F8F10BD70B505000E
:103C94000C00080000F0FEFE0949200000F03EFE82
:103CA400FFF78EFC074B9C466044800068602C75CF
:103CB400D0231B061B786B75A400034BE55070BD25
:103CC400A13D0020400000344CDE01200A4B1A685C
:103CD400EFF3108172B61368002BFCD0BFF35F8F33
:103CE400054B1B68BFF35F8F00221A6081F31088B5
:103CF40040BF00200021704770E0012010B500296A
:103D040022D003681B7B99421ED8174B9C46614402
:103D1400090183689C4661440C684968002A19D0EB
:103D240003681B7B9A4215D883680F488446624413
:103D340012019A1810685368020001208B4201D8BE
:103D44000ED00020C0B210BD084B094A3C210948DE
:103D540001F052FC054B064A3C21064801F04CFC9C
:103D6400A242EFD8EDE7C046FFFFFF0F38680120FD
:103D7400946A01200868012010B500291ED0037B35
:103D840099421BD84B005B18033B0468A446634468
:103D9400002919D0002A1DD0914221D0002A25D013
:103DA400047BA24222D804685000801803382018EB
:103DB4008170197800291FD11A7010BD104B114A57
:103DC4006821114801F018FC104B114A6F310E485C
:103DD40001F012FC0F4B0E4A70210B4801F00CFC51
:103DE4000D4B0B4A7121084801F006FC044B054AAF
:103DF4006821054801F000FC41701A70DDE7C046F7
:103E04005C680120006B012078680120BC680120F7
:103E1400DC6A0120C8680120D468012070B506005E
:103E24000D001400002914D0002A14D0806873688F
:103E34009847002806D0220029003000FFF79CFF95
:103E4400280007E02A0021003000FFF795FF20003A
:103E540000E0100070BD0800FCE70000F0B583B07E
:103E64000500009201930AAB1C780BAB1F78002C61
:103E740026D003685A7B944207D10123002B19D121
:103E8400002C3BD1200003B0F0BD002C0CD01A7BD9
:103E9400944209D81A6863001B19033BD3189B7812
:103EA400002BEBD00123E9E73E4B3F4A68213F4812
:103EB40001F0A2FB3E4B3F4A67213F4801F09CFBC7
:103EC40003689C7B002CDBD012D01A7B94420FD861
:103ED40062001219033A19688C4662445178997346
:103EE400002900D1D9730023937053701370C7E76E
:103EF4002C4B2D4A68212D4801F07EFB002C3AD032
:103F04002B681B7B9C4236D82C4BE3181B01AA68F8
:103F140094466344009A1A60019A5A60089A9A6017
:103F2400099ADA602E68002C2BD030D0337B9C4267
:103F34002DD863001B19033B326894466344002266
:103F44009A705A701A70717B22003000FFF766FF76
:103F54007073844200D095E7287D009A019B00F09D
:103F640025FD061E01D0002F17D00C9B002B00D17D
:103F740088E71E7086E7124B124A3C210E4801F076
:103F84003BFB114B114AA521084801F035FB054BB9
:103F9400054A6821054801F02FFB2868210000F03C
:103FA4003DFFE2E75C680120006B01207868012096
:103FB400EC6801200C6B012008680120FFFFFF0F53
:103FC40038680120946A012004680120F06A012005
:103FD400F0B5DE4657464E464546E0B58BB00990EF
:103FE400002308938200B54BD658370052E0B44BF7
:103FF400B44A3F21B44801F0FFFAB44BB44A3C211F
:10400400B44801F0F9FA002901D1002869D100214E
:10401400404600F0F9FEA04219D12A686B68069266
:104024000793AB689846EB689A464346002B14D036
:10403400002C18D03B681B7B9C4214D8631EFA6882
:10404400D35C08931B0218433861002015E0A24B8F
:10405400A24A8E219F4801F0CFFAA14B9F4A922198
:104064009C4801F0C9FA994B9E4A4121994801F0B4
:10407400C3FA00239A46984600207B68BFF35F8FFB
:1040840000221A6086F310884346002B32D10028A0
:1040940000D10CE100F0FEFB02000B1EA7DB0020A8
:1040A4000021069007917868EFF3108672B60168D4
:1040B4000029FCD0BFF35F8F396888464C7B002C05
:1040C400D7D09AD0097B8C4297D8874965182D019F
:1040D400B9688C46654428686968801A9941002942
:1040E40091DD2A686B68099800F060FC00239A4609
:1040F4009846C2E7089B1B02234399465146180081
:10410400C04705000E007A68EFF3108B72B613688F
:1041140059424B41D9B2002BF9D1BFF35F8F002E26
:104124001EDB002E46DD3B69002B47D04B456DD18D
:1041340000F0B0FB02000B1E6EDB52197341002B22
:1041440070DB002B72DB0021049101310391029496
:1041540051460191414600913800FFF77FFE4CE043
:104164003B69002BDDD04B4514D1069A079B521BAB
:10417400B341002B14DB002B16DB00210491013129
:104184000391029451460191414600913800FFF792
:1041940065FE32E0554B514AA1214E4801F02CFAFC
:1041A40001225242524BE6E7454B464A3F214648DC
:1041B40001F022FA002E01D1002DB4D13B68002C6D
:1041C40050D05A7B944237D1012100294AD1DA7B5D
:1041D400002A4DD19A7B002A03D1DA7B002A5AD1D6
:1041E4009C73DC73002C5CD03B681B7B9C4258D8CE
:1041F400FA68013C135D0133135500233B617A686F
:10420400BFF35F8F13608BF3108843E7374B334A58
:10421400A421304801F0F0F9294B2A4A3F212A48C9
:1042240001F0EAF901225242314B8AE7244B254A34
:104234003F21254801F0E0F9002C0DD01A7B94426F
:104244000AD862001219033A1868844662449278C4
:10425400002ABAD00121B8E7264B274A682127480B
:1042640001F0CAF9264B274AF621244801F0C4F983
:10427400002A0AD0197B8A4207D851008A18033AC7
:1042840019688C4662445470A4E71A4B1A4A682190
:104294001A4801F0B1F91C4B1A4AFB21174801F0E6
:1042A400ABF90A4B0F4A41210A4801F0A5F90BB0BA
:1042B400F0BCBB46B246A946A046F0BD4CDE012088
:1042C4007C660120606A012098660120386801201C
:1042D400946A01200868012014690120786A012089
:1042E4002C690120B86A0120FFFFFF0F3869012003
:1042F400FFFFFF7F5C680120006B012078680120CC
:1043040074690120CC6A01209869012010B50C4B16
:104314005B68002B04D00A210A48FFF793FC10BD08
:10432400074C2300084A1021206800F07DFC03207C
:1043340000F0A4FA03212000FFF7A8FCEBE7C04635
:104344008C92012070E00120CD3A002010B5064B7C
:104354005B68002B01D0044810BD044B044A5E2165
:10436400044801F049F9C0468C920120AC6901204F
:10437400A06A012008680120F0B5DE4657464E4683
:104384004546E0B58BB0804616001F00149B9A4644
:10439400159B994616AB1B789B461F2302AA94468D
:1043A400634400221A702BE0002809D042461268A8
:1043B400127B904204D8421E4146C9688A5C41E09F
:1043C400404B414A4121414801F016F907984CE01D
:1043D400361BAF41002F07DB002F11DA3C4B3D4A5F
:1043E4003F213D4801F008F9012676423B4FF3E7AF
:1043F400374B384A3F21384801F0FEF8002F4FDB95
:1044040043465A68EFF3108472B6136859424B411D
:10441400D9B20791002BF8D1BFF35F8F1F3302AAE3
:104424009446634404930023039302934B460193FD
:104434005346009332003B004046FFF70FFD031E36
:10444400B2D1020041464968BFF35F8F00250D6079
:1044540084F31088002B29D01F2302A98C466344BF
:104464001B78002BB2D112021043002B20D05B46E4
:10447400002B1DD04946D04704000D0003000B4318
:104484001DD00029A4DB00F005FA06000F1EAFDBE7
:1044940036196F41002FB1DA012676420F4FADE78E
:1044A4000B4B0C4A3F210C4801F0A6F80120404276
:1044B4000BB0F0BCBB46B246A946A046F0BD079877
:1044C400F6E7C04638680120B86A01200868012070
:1044D4007C660120606A012098660120FFFFFF7F4F
:1044E400F8B50400002900D162E04268EFF31085BA
:1044F40072B6136858424341D8B2002BF9D1BFF3C6
:104504005F8FCBB22268567BB3421BD101200028B7
:1045140048D0206988422BD0090AC9B2002B2ED07A
:104524002068007B83422AD8581EE668305C8842A3
:104534002BD000206368BFF35F8F00221A6085F3DD
:104544001088F8BD002B0DD0167BB3420AD85E004C
:10455400F618033E1768BC466644B678002ED6D0DB
:104564000120D4E7134B144A6821144801F044F89D
:104574002C21134B134AFF31134801F03DF8134B20
:10458400134A4121104801F037F81900100000F0D7
:1045940045FC0028CED199210E4B0A4A49000A480D
:1045A40001F02AF823698B42C4D100232361C1E7B7
:1045B4000020C6E75C680120006B012078680120B8
:1045C400D0690120486A0120086801203868012068
:1045D400B86A0120F4690120F0B587B006000F0025
:1045E400EFF30583002B1FD106246442E517A419B9
:1045F4007D418D4202D803D1844201D90024002593
:10460400002D14DB0494059500F044F902000B1E00
:1046140013DBA41A9D41002D17DC14D0300039009F
:1046240000F044F907B0F0BD234801F07FF8234BB4
:10463400234A3F21234800F0DFFF204B204A3F213B
:10464400204800F0D9FF002CE8D0FFF77FFE0023BC
:10465400029301931C4B0093049A059BFFF78CFE75
:10466400002818DADAE7002300E00023002BD5D174
:10467400164B1A68EFF3108172B61368002BFCD046
:10468400BFF35F8F114B1B68BFF35F8F00221A606B
:1046940081F3108820BF0499059A0D4B5B6A9A42F6
:1046A400E3D80B48806A884203D29A42DBD00123C4
:1046B400DCE70123DAE7C046F86901207C660120C3
:1046C400606A0120986601209D3A002070E0012074
:1046D4000040054070B504000D0000F0DBF8020056
:1046E4000B1E0ADB200029008018594100290ADB2F
:1046F40000290CDBFFF770FF70BD084B084A3F210F
:10470400084800F079FF012040420749F0E7034BD5
:10471400034A3F21034800F06FFFC0467C66012036
:10472400606A012098660120FFFFFF7F10B5FA221E
:1047340092000023002102F051FFFFF7CBFF10BDD0
:1047440070B584B005000C00EFF30583002B1ED177
:10475400FFF7FCFD002302930193224B00932A00F0
:104764002300FFF709FE061E23DD20BFFFF7EEFD41
:104774003100FFF7B5FE1C4B5B6A9C422DD81A4AE8
:10478400926AAA422CD29C4225D0012026E0164BE4
:104794005B6A994209D8144A926A824207D29942C2
:1047A40001D001201AE0002018E0002016E00120CA
:1047B40014E00D4B5B6A9C4209D80B4A926AAA42E8
:1047C40007D29C4201D0012008E0002006E000202E
:1047D40004E0012002E0002000E0002004B070BDED
:1047E4000120FBE79D3A00200040054070B5EFF33F
:1047F40005801038EFF3108C72B61A4B1B68002B2F
:10480400FBD0BFF35F8F01221300834016494B6333
:1048140016490B60164909780C00C440224214D092
:10482400114A546A8200134D5259944206D38200AD
:10483400114C125999430E4B197007E00A4A031D93
:104844009B0099589950002200E00022BFF35F8F2B
:10485400044B002119608CF31088002A00D0904783
:1048640070BDC046280100D0004005403C700540A2
:10487400F8E1012074E1012060BE012010B50100BF
:10488400024A0348FEF74AFE10BDC046306B0120C1
:10489400F1E10120044B5B6A034A906A1900536AF0
:1048A4009942F9D17047C04600400540084B5B6A05
:1048B40001E0074B5B6A8B42FBD301E0044B5B6A6C
:1048C4008B4203D1024B9B6A8342F7D37047C046A5
:1048D4000040054070B504000D00FFF7DBFF020047
:1048E4000B0020002900801859418B4202D804D1C2
:1048F400824202D901204042C117002902DBFFF79E
:10490400D5FF70BD024B034A3F21034800F074FEFB
:104914007C660120D06B01209866012070B50400EC
:104924000D00EFF3108672B61B4B1B68002BFBD0F7
:10493400BFF35F8F002D1CD02000FEF7CBFE174B7A
:1049440083420BD019002000FEF7CCFE0121200089
:10495400FEF7B8FE0123A340114A1360A400114BD3
:10496400E550BFF35F8F0C4B00221A6086F310886A
:1049740070BDA2000B4B0021D1500122A2400A4974
:104984000B7893430B7005492000FEF7EFFF0021DD
:104994002000FEF797FEE4E7280100D0BD45002083
:1049A4003860054060BE0120F8E10120F0B5DE4624
:1049B40000B584B00400150001921E000293FFF7B5
:1049C40069FF03958E4202D84ED185424CD9EFF34C
:1049D400108B72B6274B1B68002BFBD0BFF35F8F85
:1049E400254A17780125A540EBB23B431370234BAE
:1049F4005D63221D92000199D150A20020490298C2
:104A040050501B6A2B4212D11C4B1B6C2B4208D0FA
:104A14000020BFF35F8F174B00221A608BF31088BE
:104A240023E0184B184AC521184800F0E5FDFFF7AC
:104A340031FF8E4214D802D1039B834210D80E4B0F
:104A44001B78BB420ED00D4B1D625D631F200440DA
:104A54000123A3400E4A1360074B1F701E38D8E78A
:104A64000020D6E70120D4E7012004B080BCBB4677
:104A7400F0BDC046280100D0F8E101200040054007
:104A840074E10120546B0120B46B0120786B012088
:104A940080E200E0EFF3108C72B60B4B1B68002B26
:104AA400FBD0BFF35F8F01238340084A1362084998
:104AB4000A789A430A70BFF35F8F034B00221A608F
:104AC4008CF310887047C046280100D00040054090
:104AD400F8E1012010B500291ED0037B99421BD8B0
:104AE4004B005B18033B0468A4466344002919D0B7
:104AF400002A1DD0914221D0002A25D0047BA24255
:104B040022D804685000801803382018817019785E
:104B140000291FD11A7010BD104B114A6821114889
:104B240000F06AFD104B114A6F310E4800F064FD2D
:104B34000F4B0E4A70210B4800F05EFD0D4B0B4AE3
:104B44007121084800F058FD044B054A68210548C6
:104B540000F052FD41701A70DDE7C0465C68012028
:104B6400CC6C012078680120BC680120B86C01205D
:104B7400C8680120D468012070B506000D00140037
:104B8400002914D0002A14D080687368984700283C
:104B940006D0220029003000FFF79CFF280007E020
:104BA4002A0021003000FFF795FF200000E01000EC
:104BB40070BD0800FCE7000010B500234373013307
:104BC4008373037BC3730123027B9A4214D9002BA2
:104BD4000CD0027B934209D85A00D218033A0168D8
:104BE4008C4662440133DBB25370EDE70B4B0C4A45
:104BF40068210C4800F000FD002A09D0924207D831
:104C0400016853009A18033A8A180023537010BDA0
:104C1400024B034A6821034800F0EEFC5C68012063
:104C2400CC6C01207868012010B501734260836068
:104C3400FFF7C2FF10BD000070B50400081E00D1CC
:104C440070BD002934D0237B994231D84B005B18C6
:104C5400033B2268944663445A78002AF0D02DD04E
:104C6400237B9A422AD853009B18033B21688C4625
:104C740063445D7800215970002825D0237B984235
:104C840022D843001B18033B21688C46634400214F
:104C9400597001002000FFF76FFF06002900200073
:104CA400FFF7CAFF020031002000FFF765FFC7E7E6
:104CB400084B094A6821094800F09EFC054B064A46
:104CC4006821064800F098FC024B034A6821034817
:104CD40000F092FC5C680120CC6C01207868012013
:104CE40070B505000C00160000292FD034D0037BCA
:104CF400994231D84B005B18033B026894466344E5
:104D04005A78002A2ED19A78002A31D11978FFF7DF
:104D140093FF0300002E0AD0EA7B002A2ED1AA7B3F
:104D2400002A03D1EA7B002A3BD1AC73EC73002B3D
:104D34003DD1002C4FD02B7B9C424CD82B6861007A
:104D44000C19033C1C190023637070BD254B264AC3
:104D54003821264800F050FC254B264A6821264875
:104D640000F04AFC254B204A3A21204800F044FC3C
:104D7400234B1D4A3B211D4800F03EFC002A0AD06B
:104D8400297B8A4207D851008A18033A29688C463D
:104D940062445470C3E7164B164A6821164800F063
:104DA4002BFC184B104A4221104800F025FC002B24
:104DB4000BD02A7B934208D843001B18033B2A6874
:104DC4009446634400229A70B3E7094B094A682168
:104DD400094800F011FC064B064A6821064800F019
:104DE4000BFCC046E86B0120A46C0120F06B012091
:104DF4005C680120CC6C012078680120206C0120C3
:104E0400486C01209869012070B504000A00457BB4
:104E14002900FFF765FF6073280070BD70B50400BA
:104E2400002967D0437B8B420ED0002911D0037B2D
:104E340099420ED84B005B18033B0268D018837864
:104E4400002B0CD1002056E00121FFF7DDFF0120EB
:104E540051E0294B294A6821294800F0CDFB002B59
:104E640020D0227B93421DD85A00D318033B2268DA
:104E7400D2182568EB5C8B421AD0002B1BD0227B06
:104E8400934218D85A00D318033B2268D218537897
:104E94008B4216D0002BF0D11A4B1B4A6B211B48B6
:104EA40000F0AAFB144B154A6821154800F0A4FB36
:104EB4004378137007E0104B104A6821104800F043
:104EC4009BFB4378537000238370437001222000BE
:104ED400FFF706FF0200617B814205D02000FFF747
:104EE4004BFE6073012006E0094B074A7121074815
:104EF40000F082FB002070BD5C680120CC6C0120B6
:104F040078680120DC6501208C6C0120F06B0120A5
:104F14006C6C0120F8B504000CE0E7899F421AD1BB
:104F2400002A38D02368BFF35F8F00251D6086F305
:104F3400108820BF2568EFF3108672B62B68002B0B
:104F4400FCD0BFF35F8F25896389EB1AE5D5E78928
:104F54000137DB19E1E7BD4217D8A28955436368DD
:104F6400581902F049FC238901339BB2E289934228
:104F740000D9002323812368BFF35F8F00221A60C6
:104F840086F3108840BF0120F8BD074B074A19215A
:104F9400074800F031FB2368BFF35F8F00211960DD
:104FA40086F310881000EFE7D86C0120246D0120EF
:104FB400F46C012070B5040008000BE0002B1AD13A
:104FC400002A39D02368BFF35F8F0021196086F36C
:104FD400108820BF2168EFF3108672B60B68002B8F
:104FE400FCD0BFF35F8F238965895B1BE6D5E1891C
:104FF40001315B18E2E7E3899D4217D8A289554342
:105004006368591902F0F8FB638901339BB2E289A2
:10501400934200D9002363812368BFF35F8F00228A
:105024001A6086F3108840BF012070BD074B084A00
:105034001921084800F0E0FA2368BFF35F8F0021CC
:10504400196086F310881000EFE7C046D86C012081
:10505400246D0120F46C012070B504000D001600CD
:105064001900FEF7EFFD701C290002F087FB606059
:10507400E681A58100232381638170BD10B50122DF
:10508400FFF748FF10BD10B50122FFF793FF10BDD5
:1050940070B5046BE30701D4200070BD0200303208
:1050A400C0239B0113430A4A1A60456A826AAD0110
:1050B400AD18AD02062000F0BDF9064901F04AFC26
:1050C4000100280001F046FC0021FFF703FCE3E7A0
:1050D400010300004E0E000070B504000E00150020
:1050E400FFF7D6FF22002C32E16A4E403540802380
:1050F4005B0113431D60206370BD000070B50500A3
:105104000C00062000F096F9C000210001F022FCFA
:10511400C60908D00E4B9E4216D87F231840013092
:105124003400460800E001246C62AE6200220021D3
:105134002800FFF7D1FF062000F07CF98000A101D0
:10514400891901F007FC70BD0026024CECE7C0464B
:10515400FEFF0000FFFF000010B505394901013AC8
:10516400D2001143002B09D002220A43012B07D09D
:10517400002111436E22FFF7AFFF10BD0022F4E7B8
:105184000421F6E7002909D00A22064B9C46604414
:10519400434258414000044BC2527047802252009F
:1051A400F3E7C0460080FCBFE8E1012070B50500CC
:1051B4000C00062000F03EF9061E27D0164B9D4237
:1051C40026D08022D203154B1A60154B1A60154B5A
:1051D4009B6811009943FAD100212800FFF7D2FF00
:1051E40021002800FFF78AFF06000023012208217E
:1051F4002800FFF7B1FF2A002C3280239B011343C0
:1052040010221A60084B2B630323AB64300070BD7B
:1052140080221204D7E7C0460080034000E000402B
:1052240000F0004000C0004001030000F8B5DE4675
:1052340057464E464546E0B505000F0092460A9A89
:10524400934250D31A0E91461E020A9A002330004C
:10525400494601F0BDFB80466C006419A400304B44
:105264009C4664446368834200D260602B1FDBB2B7
:105274009B46012B3DD9C0239B012343802212016D
:105284001A60AB00274A9958002907D0506901F0E9
:1052940061FB431C5800C0180338FDD253465A0121
:1052A40023685A40E0231A4080235B0123431A6099
:1052B4005A46012A28D980239B01234380221201C4
:1052C4001A6043466360424600233000494601F0B9
:1052D4007FFBAD00134B58510120F0BCBB46B246D6
:1052E400A946A046F8BD104B104A3321104800F0DF
:1052F40083F9012FBFD1C0239B01234303221A60EA
:10530400A368DB07FCD5C9E72168794003220A407A
:105314001A60A2680123BB401342FAD0CBE7C0460F
:105324000080004078CE0120306D0120806D012086
:10533400446D012030B583B00C2000F01FF9FEF756
:10534400CDF800280DD0002304E099002D4A2E4802
:1053540088500133092BF8D92A4B2C4A5A6203B0DE
:1053640030BD2B4B00229A6700F010F9294B012223
:105374001A60274B5B6C012BFBD1274B03221A606D
:10538400234B9B6B012BFBD1013300930433234A42
:105394000121234800F054F805230093214A0121F8
:1053A400214800F04DF8214B0093002202210420F3
:1053B400FFF73CFF1E4D00952B0000220121052024
:1053C400FFF734FF104C0094230000220021072033
:1053D400FFF72CFF00942300002200210820FFF790
:1053E40025FF0A4B00932300002200210920FFF728
:1053F4001DFF00952B00002200210620FFF716FF59
:10540400ADE7C04678CE0120006CDC021BB700007B
:10541400008000403CB0004030B00040002F68598C
:1054240000800240008C864700C00240001BB70089
:10543400405973078000014BC058704778CE012053
:10544400F0B5C64600B504000E0017001D0037482D
:1054540001F080FA8046364BFA18364B9A4239D816
:105464000100380001F076FA0200103A98235B003C
:105474009A4235D86B1E062B38D8069B013B062B67
:1054840034D83F09474537D32D04069B1A031543E7
:105494002368002B36DB284B9C4244D080225201E7
:1054A400264B1A60264B1A60264B9B6811009943C1
:1054B400FAD12660A060231DC02292011A43212341
:1054C40013602368002BFCDAE5600823136080BCBA
:1054D400B846F0BD1C4B1D4A11211D4800F08CF844
:1054E4001C4B1A4A19211A4800F086F81A4B174A1D
:1054F4001C21174800F080F8184B144A2321144843
:1055040000F07AF822683F231340B342C3D1A36862
:105514001B051B0D8342BED1E368EE22D202134069
:10552400AB42B8D1D3E780229201B9E7001BB700A0
:1055340080E84BD380F8A93200C0024000E000406C
:1055440000F0004000C00040906D0120AC6E0120CE
:10555400F06D0120286E0120446E0120906E012020
:105564000001044B1B685840F0231840024B18609C
:105574007047C046004006400050064080239B0010
:105584000343014AD362704700800540064BAA22B8
:1055940012011A602F22DA60044B054A1A60024B8A
:1055A4005B68002BFBDA7047004002400060024059
:1055B40000B0FA0000BEFDE703000A4A1268002AA0
:1055C40008D0084A1068C318074A9A4206D3054A05
:1055D40013607047034A05491160F2E70120404215
:1055E400F7E7C04620D3012000000420FCE101209D
:1055F40010B5FFF7DFFF000010B582B00C001900F2
:10560400002A0CD0084B002A0BD0019200932300EF
:105614000200064802F0A4FA0120FFF7CBFF044B76
:10562400F1E7034AF1E7C046B86E0120C86E0120D5
:10563400C062012070B52B4B2B4A1A602B4B2C4AAD
:105644001A602C4B9A682A4B9343FAD12A4C01E0F6
:1056540008CC9847294B9C42FAD3FFF76BFE234BA7
:10566400274A1A60234B9B68DB43DB01FAD1254BA5
:1056740040229A675A671A67DA66234C09E0234B7B
:10568400234A87212348FFF7B7FF2000FEF7E2FAF9
:105694000834214B9C4209D22368002BF5D0012BFE
:1056A400EDD12000FEF7E3FA0834F2E71B4CA168C1
:1056B4001B4DC022280002F09FF8A560EFF305837C
:1056C400002B00D000BEFDF76BFFFEF79DFAFEF73E
:1056D4001DFE144C01E008CC9847134B9C42FAD3AE
:1056E40070BDC04600E00040BFCDFBFE00F00040AE
:1056F400FE7F3C0000C00040AC9C0120BC9C01200B
:10570400FFFFFF0100F001408C9C0120F86E012096
:10571400646F0120186F0120AC9C012000ED00E0B3
:1057240000000020BC9C0120C49C01200FB400B5E3
:1057340083B0084802F0E4F9049B002B07D005A9C4
:105744000191180002F0ECF9034802F0D9F90120A4
:10575400FFF730FF546F0120185E0120704710B529
:10576400002802D00B684968984710BD010000204A
:1057740007E083001B185B00501C08601078C018F9
:1057840030380A681378303BDBB2092BF1D9704703
:10579400F0B5DE4657464E464546E0B583B09346DF
:1057A4001F000C9B9A460D9C0E9B99460F9B9B07D2
:1057B40003D0B8460F00060022E00192A3468846B3
:1057C4004E46B9460700B44207D2551C4B464146E3
:1057D4002020B84701342A00F5E73D004F465C46D7
:1057E400019B9B46B1464646B84637002E0007E06B
:1057F400013C551C5346185D43463900B0472A0006
:10580400002CF5D135003E0047460F9B9B0707D47B
:10581400100003B0F0BCBB46B246A946A046F0BD9A
:10582400B0464E46B9462F005D46531BB342EFD2F5
:10583400541C4B4641462020B8472200F5E7F0B5FA
:10584400CE46474680B585B0944698460C9D0D9C3F
:105854000EAB1B789946109A119B129EB7071CD465
:10586400002B0CD0F7070AD54F46002F02D10C3776
:10587400374204D0013B02E030272F5501349442D3
:1058840001D21F2CF8D9F70707D59C4205D21F2C4B
:1058940003D830272F550134F5E7F70615D57705DA
:1058A40005D4002C03D0944224D09C4222D00F9AD9
:1058B400102A2BD00F9A102A30D00F9A022A35D0F2
:1058C4001F2C02D830222A5501341F2C05D84A46F1
:1058D400002A31D02D222A550134039602930194D3
:1058E400009543466246FFF753FF05B0C0BCB94676
:1058F400B046F0BD621E012C06D00F9F102F01D0C0
:105904001400D4E7023CD2E71400D0E7B206D1D4A5
:105914001F2CCFD878222A550134D1E7B206CCD532
:105924001F2CCAD858222A550134C9E71F2CC7D8BE
:1059340060322A550134C3E7720703D52B222A5556
:105944000134CAE73207C8D520222A550134C4E7F6
:10595400F0B5DE4657464E464546E0B593B081461F
:105964008A46089209931CAB10CB1B789B461E9D5C
:10597400219B9846002C03D1102342469A4390461B
:105984008023DB0046461E4042461A4212D0002CB9
:1059940022D000260EE03033D9B2771C0AAB9955D9
:1059A4002900200000F0D6FFAC4216D31F2F14D8D4
:1059B4003E0004002900200000F0CCFFCBB2092BEC
:1059C400E9D94246920605D54121C918C9B20A3916
:1059D400C9B2E2E76121F8E7270043460693209B1A
:1059E40005931F9B049303955B46029301970AABAF
:1059F4000093099B089A51464846FFF720FF13B0CD
:105A0400F0BCBB46B246A946A046F0BDF0B5DE46A2
:105A140057464E464546E0B595B0089009910A921E
:105A24000B931E9E1F9C20AB1B789B46229B994682
:105A3400239D269B9A463300234303D110335246B9
:105A44009A4392468023DB0057461F4052461A422F
:105A540019D0330023432DD0002714E03033DAB2B9
:105A64007B1C98460CABDA554A462B0030002100CB
:105A740000F0AEFFA5421FD819D043461F2B1BD8F8
:105A8400474606000C004A462B003000210000F077
:105A94009FFFD3B2092BE1D95246920605D5412284
:105AA400D218D2B20A3AD2B2DAE76122F8E7B145A3
:105AB400E3D901E00023984653460693259B0593BA
:105AC400249B04934B4603935B4602934346019302
